{
  "_format": "hh-sol-artifact-1",
  "contractName": "ReactiveOrchestrator",
  "sourceName": "contracts/orchestrator/ReactiveOrchestrator.sol",
  "abi": [
    {
      "inputs": [],
      "stateMutability": "nonpayable",
      "type": "constructor"
    },
    {
      "inputs": [],
      "name": "OnlyReactivityPrecompile",
      "type": "error"
    },
    {
      "anonymous": false,
      "inputs": [
        {
          "indexed": true,
          "internalType": "uint256",
          "name": "ruleId",
          "type": "uint256"
        }
      ],
      "name": "RuleDeactivated",
      "type": "event"
    },
    {
      "anonymous": false,
      "inputs": [
        {
          "indexed": true,
          "internalType": "uint256",
          "name": "ruleId",
          "type": "uint256"
        },
        {
          "indexed": false,
          "internalType": "bool",
          "name": "success",
          "type": "bool"
        },
        {
          "indexed": false,
          "internalType": "uint256",
          "name": "timestamp",
          "type": "uint256"
        }
      ],
      "name": "RuleExecuted",
      "type": "event"
    },
    {
      "anonymous": false,
      "inputs": [
        {
          "indexed": true,
          "internalType": "uint256",
          "name": "ruleId",
          "type": "uint256"
        },
        {
          "indexed": false,
          "internalType": "bytes",
          "name": "reason",
          "type": "bytes"
        }
      ],
      "name": "RuleFailed",
      "type": "event"
    },
    {
      "anonymous": false,
      "inputs": [
        {
          "indexed": true,
          "internalType": "uint256",
          "name": "ruleId",
          "type": "uint256"
        },
        {
          "indexed": true,
          "internalType": "address",
          "name": "source",
          "type": "address"
        },
        {
          "indexed": true,
          "internalType": "address",
          "name": "target",
          "type": "address"
        }
      ],
      "name": "RuleRegistered",
      "type": "event"
    },
    {
      "inputs": [
        {
          "internalType": "uint256",
          "name": "ruleId",
          "type": "uint256"
        }
      ],
      "name": "deactivateRule",
      "outputs": [],
      "stateMutability": "nonpayable",
      "type": "function"
    },
    {
      "inputs": [
        {
          "internalType": "address",
          "name": "target",
          "type": "address"
        },
        {
          "internalType": "bytes",
          "name": "callData",
          "type": "bytes"
        }
      ],
      "name": "executeTargetCall",
      "outputs": [
        {
          "internalType": "bool",
          "name": "success",
          "type": "bool"
        },
        {
          "internalType": "bytes",
          "name": "returnData",
          "type": "bytes"
        }
      ],
      "stateMutability": "nonpayable",
      "type": "function"
    },
    {
      "inputs": [
        {
          "internalType": "uint256",
          "name": "ruleId",
          "type": "uint256"
        }
      ],
      "name": "getExecutionLogs",
      "outputs": [
        {
          "components": [
            {
              "internalType": "uint256",
              "name": "ruleId",
              "type": "uint256"
            },
            {
              "internalType": "uint256",
              "name": "timestamp",
              "type": "uint256"
            },
            {
              "internalType": "bool",
              "name": "success",
              "type": "bool"
            },
            {
              "internalType": "bytes",
              "name": "returnData",
              "type": "bytes"
            },
            {
              "internalType": "uint256",
              "name": "gasUsed",
              "type": "uint256"
            }
          ],
          "internalType": "struct IReactiveOrchestrator.ExecutionLog[]",
          "name": "",
          "type": "tuple[]"
        }
      ],
      "stateMutability": "view",
      "type": "function"
    },
    {
      "inputs": [],
      "name": "getNextRuleId",
      "outputs": [
        {
          "internalType": "uint256",
          "name": "",
          "type": "uint256"
        }
      ],
      "stateMutability": "view",
      "type": "function"
    },
    {
      "inputs": [
        {
          "internalType": "uint256",
          "name": "ruleId",
          "type": "uint256"
        }
      ],
      "name": "getRule",
      "outputs": [
        {
          "components": [
            {
              "internalType": "address",
              "name": "source",
              "type": "address"
            },
            {
              "internalType": "bytes4",
              "name": "eventSig",
              "type": "bytes4"
            },
            {
              "internalType": "uint256",
              "name": "threshold",
              "type": "uint256"
            },
            {
              "internalType": "address",
              "name": "target",
              "type": "address"
            },
            {
              "internalType": "bytes",
              "name": "callData",
              "type": "bytes"
            },
            {
              "internalType": "bool",
              "name": "active",
              "type": "bool"
            },
            {
              "internalType": "uint256",
              "name": "createdAt",
              "type": "uint256"
            }
          ],
          "internalType": "struct IReactiveOrchestrator.Rule",
          "name": "",
          "type": "tuple"
        }
      ],
      "stateMutability": "view",
      "type": "function"
    },
    {
      "inputs": [
        {
          "internalType": "uint256",
          "name": "ruleId",
          "type": "uint256"
        }
      ],
      "name": "isRuleActive",
      "outputs": [
        {
          "internalType": "bool",
          "name": "",
          "type": "bool"
        }
      ],
      "stateMutability": "view",
      "type": "function"
    },
    {
      "inputs": [
        {
          "internalType": "address",
          "name": "emitter",
          "type": "address"
        },
        {
          "internalType": "bytes32[]",
          "name": "eventTopics",
          "type": "bytes32[]"
        },
        {
          "internalType": "bytes",
          "name": "data",
          "type": "bytes"
        }
      ],
      "name": "onEvent",
      "outputs": [],
      "stateMutability": "nonpayable",
      "type": "function"
    },
    {
      "inputs": [],
      "name": "owner",
      "outputs": [
        {
          "internalType": "address",
          "name": "",
          "type": "address"
        }
      ],
      "stateMutability": "view",
      "type": "function"
    },
    {
      "inputs": [
        {
          "internalType": "address",
          "name": "source",
          "type": "address"
        },
        {
          "internalType": "bytes4",
          "name": "eventSig",
          "type": "bytes4"
        },
        {
          "internalType": "uint256",
          "name": "threshold",
          "type": "uint256"
        },
        {
          "internalType": "address",
          "name": "target",
          "type": "address"
        },
        {
          "internalType": "bytes",
          "name": "callData",
          "type": "bytes"
        }
      ],
      "name": "registerRule",
      "outputs": [
        {
          "internalType": "uint256",
          "name": "ruleId",
          "type": "uint256"
        }
      ],
      "stateMutability": "nonpayable",
      "type": "function"
    },
    {
      "inputs": [
        {
          "internalType": "bytes4",
          "name": "interfaceId",
          "type": "bytes4"
        }
      ],
      "name": "supportsInterface",
      "outputs": [
        {
          "internalType": "bool",
          "name": "",
          "type": "bool"
        }
      ],
      "stateMutability": "pure",
      "type": "function"
    },
    {
      "inputs": [
        {
          "internalType": "address",
          "name": "emitter",
          "type": "address"
        },
        {
          "internalType": "bytes32[]",
          "name": "eventTopics",
          "type": "bytes32[]"
        },
        {
          "internalType": "bytes",
          "name": "data",
          "type": "bytes"
        }
      ],
      "name": "testTriggerEvent",
      "outputs": [],
      "stateMutability": "nonpayable",
      "type": "function"
    }
  ],
  "bytecode": "0x6080604052348015600f57600080fd5b50600480546001600160a01b03191633179055611151806100316000396000f3fe608060405234801561001057600080fd5b50600436106100a95760003560e01c80635d44b63a116100715780635d44b63a1461013f5780638da5cb5b1461015f578063a53ec0d71461018a578063c7dc3763146101ad578063e29ae07e146101ce578063e8f62525146101e157600080fd5b806301ffc9a7146100ae5780633a758ccc146100d657806348462037146100eb5780634f9847f71461010b57806353edf33d1461012c575b600080fd5b6100c16100bc366004610af6565b6101e9565b60405190151581526020015b60405180910390f35b6100e96100e4366004610b18565b610220565b005b6100fe6100f9366004610b18565b6102fa565b6040516100cd9190610b77565b61011e610119366004610c5f565b610446565b6040516100cd929190610cb2565b6100e961013a366004610cd5565b610522565b61015261014d366004610b18565b610558565b6040516100cd9190610d90565b600454610172906001600160a01b031681565b6040516001600160a01b0390911681526020016100cd565b6100c1610198366004610b18565b60009081526002602052604090205460ff1690565b6101c06101bb366004610e2d565b610695565b6040519081526020016100cd565b6100e96101dc366004610cd5565b610853565b6003546101c0565b60006301ffc9a760e01b6001600160e01b03198316148061021a57506353edf33d60e01b6001600160e01b03198316145b92915050565b6004546001600160a01b031633146102535760405162461bcd60e51b815260040161024a90610eac565b60405180910390fd5b60008181526002602052604090205460ff166102a35760405162461bcd60e51b815260206004820152600f60248201526e52756c65206e6f742061637469766560881b604482015260640161024a565b6000818152600260209081526040808320805460ff199081169091559183905280832060040180549092169091555182917f10f20964070563144f21a910e8366c726f038a0b238c21e7f96e3f609a5a609491a250565b6040805160e0810182526000808252602082018190529181018290526060808201839052608082015260a0810182905260c081019190915260008281526020818152604091829020825160e0808201855282546001600160a01b0380821684526001600160e01b0319600160a01b90920490921b1693820193909352600182015493810193909352600281015490911660608301526003810180546080840191906103a490610ed0565b80601f01602080910402602001604051908101604052809291908181526020018280546103d090610ed0565b801561041d5780601f106103f25761010080835404028352916020019161041d565b820191906000526020600020905b81548152906001019060200180831161040057829003601f168201915b5050509183525050600482015460ff161515602082015260059091015460409091015292915050565b6004546000906060906001600160a01b031633146104765760405162461bcd60e51b815260040161024a90610eac565b846001600160a01b03168484604051610490929190610f0a565b6000604051808303816000865af19150503d80600081146104cd576040519150601f19603f3d011682016040523d82523d6000602084013e6104d2565b606091505b5090925090508161051a5760405162461bcd60e51b815260206004820152601260248201527115185c99d95d0818d85b1b0819985a5b195960721b604482015260640161024a565b935093915050565b33610100146105445760405163191fbb7560e01b815260040160405180910390fd5b610551858585858561087d565b5050505050565b606060016000838152602001908152602001600020805480602002602001604051908101604052809291908181526020016000905b8282101561068a57838290600052602060002090600502016040518060a001604052908160008201548152602001600182015481526020016002820160009054906101000a900460ff161515151581526020016003820180546105ef90610ed0565b80601f016020809104026020016040519081016040528092919081815260200182805461061b90610ed0565b80156106685780601f1061063d57610100808354040283529160200191610668565b820191906000526020600020905b81548152906001019060200180831161064b57829003601f168201915b505050505081526020016004820154815250508152602001906001019061058d565b505050509050919050565b6004546000906001600160a01b031633146106c25760405162461bcd60e51b815260040161024a90610eac565b600380549060006106d283610f30565b9190505590506040518060e00160405280886001600160a01b03168152602001876001600160e01b0319168152602001868152602001856001600160a01b0316815260200184848080601f01602080910402602001604051908101604052809392919081815260200183838082843760009201829052509385525050600160208085018290524260409586015286845283815292849020855181549487015160e01c600160a01b026001600160c01b03199095166001600160a01b03918216179490941781559385015190840155506060830151600283018054919092166001600160a01b031991909116179055608082015160038201906107d49082610fab565b5060a082015160048201805491151560ff1992831617905560c090920151600590910155600082815260026020526040808220805490931660011790925590516001600160a01b0380871692908a169184917f62fe30293b8f5d2c67986d9095f6e74e23f61bd58d9744f73195d0e477f4132b91a49695505050505050565b6004546001600160a01b031633146105445760405162461bcd60e51b815260040161024a90610eac565b60005b600354811015610ad15760008181526002602052604090205460ff1615610ac957600081815260208190526040902080546001600160a01b038881169116146108c95750610ac9565b8054600160a01b900460e01b6001600160e01b03191686866000816108f0576108f061106a565b905060200201356001600160e01b0319161461090c5750610ac9565b6000602084106109255761092284860186610b18565b90505b8160010154811015610ac65760005a600284015460405191925060009182916001600160a01b03169061095c906003880190611080565b6000604051808303816000865af19150503d8060008114610999576040519150601f19603f3d011682016040523d82523d6000602084013e61099e565b606091505b509150915060005a6109b090856110f5565b6000888152600160208181526040808420815160a0810183528d8152428185019081528a1515938201938452606082018a815260808301899052835480880185559388529490962081516005909302019182559451938101939093555160028301805460ff19169115159190911790555192935090916003820190610a359082610fab565b506080820151816004015550508215610a8857604080516001815242602082015288917ffa20db7299eb338a63ac6d4f25ae9809a1f5292a1e1af7e90307ab85555ab06a910160405180910390a2610ac1565b867f9dac740a15ff3d9f3b70c2f8cc173f9ac195a6156f99203e766617d0966dc0c583604051610ab89190611108565b60405180910390a25b505050505b50505b600101610880565b505050505050565b80356001600160e01b031981168114610af157600080fd5b919050565b600060208284031215610b0857600080fd5b610b1182610ad9565b9392505050565b600060208284031215610b2a57600080fd5b5035919050565b6000815180845260005b81811015610b5757602081850181015186830182015201610b3b565b506000602082860101526020601f19601f83011685010191505092915050565b6020815260018060a01b03825116602082015263ffffffff60e01b60208301511660408201526040820151606082015260018060a01b0360608301511660808201526000608083015160e060a0840152610bd5610100840182610b31565b905060a0840151610bea60c085018215159052565b5060c084015160e08401528091505092915050565b80356001600160a01b0381168114610af157600080fd5b60008083601f840112610c2857600080fd5b50813567ffffffffffffffff811115610c4057600080fd5b602083019150836020828501011115610c5857600080fd5b9250929050565b600080600060408486031215610c7457600080fd5b610c7d84610bff565b9250602084013567ffffffffffffffff811115610c9957600080fd5b610ca586828701610c16565b9497909650939450505050565b8215158152604060208201526000610ccd6040830184610b31565b949350505050565b600080600080600060608688031215610ced57600080fd5b610cf686610bff565b9450602086013567ffffffffffffffff811115610d1257600080fd5b8601601f81018813610d2357600080fd5b803567ffffffffffffffff811115610d3a57600080fd5b8860208260051b8401011115610d4f57600080fd5b60209190910194509250604086013567ffffffffffffffff811115610d7357600080fd5b610d7f88828901610c16565b969995985093965092949392505050565b6000602082016020835280845180835260408501915060408160051b86010192506020860160005b82811015610e2157603f1987860301845281518051865260208101516020870152604081015115156040870152606081015160a06060880152610dfe60a0880182610b31565b608092830151979092019690965294506020938401939190910190600101610db8565b50929695505050505050565b60008060008060008060a08789031215610e4657600080fd5b610e4f87610bff565b9550610e5d60208801610ad9565b945060408701359350610e7260608801610bff565b9250608087013567ffffffffffffffff811115610e8e57600080fd5b610e9a89828a01610c16565b979a9699509497509295939492505050565b6020808252600a908201526927b7363c9037bbb732b960b11b604082015260600190565b600181811c90821680610ee457607f821691505b602082108103610f0457634e487b7160e01b600052602260045260246000fd5b50919050565b8183823760009101908152919050565b634e487b7160e01b600052601160045260246000fd5b600060018201610f4257610f42610f1a565b5060010190565b634e487b7160e01b600052604160045260246000fd5b601f821115610fa657806000526020600020601f840160051c81016020851015610f865750805b601f840160051c820191505b818110156105515760008155600101610f92565b505050565b815167ffffffffffffffff811115610fc557610fc5610f49565b610fd981610fd38454610ed0565b84610f5f565b6020601f82116001811461100d5760008315610ff55750848201515b600019600385901b1c1916600184901b178455610551565b600084815260208120601f198516915b8281101561103d578785015182556020948501946001909201910161101d565b508482101561105b5786840151600019600387901b60f8161c191681555b50505050600190811b01905550565b634e487b7160e01b600052603260045260246000fd5b600080835461108e81610ed0565b6001821680156110a557600181146110ba576110ea565b60ff19831686528115158202860193506110ea565b86600052602060002060005b838110156110e2578154888201526001909101906020016110c6565b505081860193505b509195945050505050565b8181038181111561021a5761021a610f1a565b602081526000610b116020830184610b3156fea2646970667358221220f8dbeb7640b970a94e69c3a351650693787793c01391597be464f9060929098364736f6c634300081e0033",
  "linkReferences": {},
  "deployedLinkReferences": {}
}