{
  "_format": "hh-sol-artifact-1",
  "contractName": "StakingManager",
  "sourceName": "contracts/targets/StakingManager.sol",
  "abi": [
    {
      "inputs": [
        {
          "internalType": "uint256",
          "name": "initialRewardRate",
          "type": "uint256"
        },
        {
          "internalType": "uint256",
          "name": "initialAllocation",
          "type": "uint256"
        }
      ],
      "stateMutability": "nonpayable",
      "type": "constructor"
    },
    {
      "anonymous": false,
      "inputs": [
        {
          "indexed": true,
          "internalType": "address",
          "name": "caller",
          "type": "address"
        }
      ],
      "name": "CallerAdded",
      "type": "event"
    },
    {
      "anonymous": false,
      "inputs": [
        {
          "indexed": true,
          "internalType": "address",
          "name": "caller",
          "type": "address"
        }
      ],
      "name": "CallerRemoved",
      "type": "event"
    },
    {
      "anonymous": false,
      "inputs": [
        {
          "indexed": true,
          "internalType": "address",
          "name": "previousOwner",
          "type": "address"
        },
        {
          "indexed": true,
          "internalType": "address",
          "name": "newOwner",
          "type": "address"
        }
      ],
      "name": "OwnershipTransferred",
      "type": "event"
    },
    {
      "anonymous": false,
      "inputs": [
        {
          "indexed": true,
          "internalType": "uint256",
          "name": "newRate",
          "type": "uint256"
        },
        {
          "indexed": false,
          "internalType": "uint256",
          "name": "timestamp",
          "type": "uint256"
        }
      ],
      "name": "RewardRateUpdated",
      "type": "event"
    },
    {
      "anonymous": false,
      "inputs": [
        {
          "indexed": false,
          "internalType": "uint256",
          "name": "timestamp",
          "type": "uint256"
        }
      ],
      "name": "StakingPaused",
      "type": "event"
    },
    {
      "anonymous": false,
      "inputs": [
        {
          "indexed": false,
          "internalType": "uint256",
          "name": "timestamp",
          "type": "uint256"
        }
      ],
      "name": "StakingResumed",
      "type": "event"
    },
    {
      "anonymous": false,
      "inputs": [
        {
          "indexed": true,
          "internalType": "uint256",
          "name": "newAllocation",
          "type": "uint256"
        },
        {
          "indexed": false,
          "internalType": "uint256",
          "name": "timestamp",
          "type": "uint256"
        }
      ],
      "name": "StrategyRebalanced",
      "type": "event"
    },
    {
      "inputs": [
        {
          "internalType": "address",
          "name": "caller",
          "type": "address"
        }
      ],
      "name": "addAllowedCaller",
      "outputs": [],
      "stateMutability": "nonpayable",
      "type": "function"
    },
    {
      "inputs": [
        {
          "internalType": "address",
          "name": "",
          "type": "address"
        }
      ],
      "name": "allowedCallers",
      "outputs": [
        {
          "internalType": "bool",
          "name": "",
          "type": "bool"
        }
      ],
      "stateMutability": "view",
      "type": "function"
    },
    {
      "inputs": [],
      "name": "getRewardRate",
      "outputs": [
        {
          "internalType": "uint256",
          "name": "",
          "type": "uint256"
        }
      ],
      "stateMutability": "view",
      "type": "function"
    },
    {
      "inputs": [],
      "name": "getStakingStatus",
      "outputs": [
        {
          "internalType": "bool",
          "name": "",
          "type": "bool"
        }
      ],
      "stateMutability": "view",
      "type": "function"
    },
    {
      "inputs": [],
      "name": "getStrategyAllocation",
      "outputs": [
        {
          "internalType": "uint256",
          "name": "",
          "type": "uint256"
        }
      ],
      "stateMutability": "view",
      "type": "function"
    },
    {
      "inputs": [],
      "name": "owner",
      "outputs": [
        {
          "internalType": "address",
          "name": "",
          "type": "address"
        }
      ],
      "stateMutability": "view",
      "type": "function"
    },
    {
      "inputs": [],
      "name": "pauseStaking",
      "outputs": [],
      "stateMutability": "nonpayable",
      "type": "function"
    },
    {
      "inputs": [],
      "name": "rebalanceStrategy",
      "outputs": [],
      "stateMutability": "nonpayable",
      "type": "function"
    },
    {
      "inputs": [
        {
          "internalType": "address",
          "name": "caller",
          "type": "address"
        }
      ],
      "name": "removeAllowedCaller",
      "outputs": [],
      "stateMutability": "nonpayable",
      "type": "function"
    },
    {
      "inputs": [],
      "name": "resumeStaking",
      "outputs": [],
      "stateMutability": "nonpayable",
      "type": "function"
    },
    {
      "inputs": [
        {
          "internalType": "address",
          "name": "newOwner",
          "type": "address"
        }
      ],
      "name": "transferOwnership",
      "outputs": [],
      "stateMutability": "nonpayable",
      "type": "function"
    },
    {
      "inputs": [
        {
          "internalType": "uint256",
          "name": "newRate",
          "type": "uint256"
        }
      ],
      "name": "updateRewardRate",
      "outputs": [],
      "stateMutability": "nonpayable",
      "type": "function"
    }
  ],
  "bytecode": "0x6080604052348015600f57600080fd5b5060405161077d38038061077d833981016040819052602c916055565b600380546001600160a01b031916331790556001919091556002556000805460ff191690556078565b60008060408385031215606757600080fd5b505080516020909101519092909150565b6106f6806100876000396000f3fe608060405234801561001057600080fd5b50600436106100b45760003560e01c80639546f95e116100715780639546f95e146101535780639ef3a26114610166578063cab9b8fb14610179578063db7a3ea314610184578063f2fde38b1461018c578063f999c5061461019f57600080fd5b8063613a7b48146100b95780637475f913146100ce5780637b334154146100d65780637e1a37861461010e578063869062fe146101205780638da5cb5b14610128575b600080fd5b6100cc6100c7366004610609565b6101a7565b005b6100cc610226565b6100f96100e4366004610609565b60046020526000908152604090205460ff1681565b60405190151581526020015b60405180910390f35b6001545b604051908152602001610105565b600254610112565b60035461013b906001600160a01b031681565b6040516001600160a01b039091168152602001610105565b6100cc610161366004610609565b6102e9565b6100cc610174366004610639565b61035c565b60005460ff166100f9565b6100cc6103dd565b6100cc61019a366004610609565b610466565b6100cc610542565b6003546001600160a01b031633146101da5760405162461bcd60e51b81526004016101d190610652565b60405180910390fd5b6001600160a01b038116600081815260046020526040808220805460ff19166001179055517ff7762e85af7b409451f9a76004c5f755642902434eb11351ae67eb9746888b699190a250565b6003546001600160a01b031633148061024e57503360009081526004602052604090205460ff165b61026a5760405162461bcd60e51b81526004016101d190610676565b60005460ff166102a95760405162461bcd60e51b815260206004820152600a602482015269139bdd081c185d5cd95960b21b60448201526064016101d1565b6000805460ff191690556040514281527ff79f113488a35b98049c93ea15f720662a733aa737650b3fa6dd7437c575cbe7906020015b60405180910390a1565b6003546001600160a01b031633146103135760405162461bcd60e51b81526004016101d190610652565b6001600160a01b038116600081815260046020526040808220805460ff19169055517f50c35a67b454d38c20800d5b55e320f58f4c9c86a28d8ab20f03045d1a38d99a9190a250565b6003546001600160a01b031633148061038457503360009081526004602052604090205460ff165b6103a05760405162461bcd60e51b81526004016101d190610676565b600181905560405142815281907fc390a98ace15a7bb6bab611eedfdbb2685043b241a869420043cdfb23ccfee509060200160405180910390a250565b6003546001600160a01b031633148061040557503360009081526004602052604090205460ff165b6104215760405162461bcd60e51b81526004016101d190610676565b61042c60644261069e565b60028190556040514281527fea234a6aeb16b402d7b401a7a7acf39d7871be5134e4392193eccfda0be6201e9060200160405180910390a2565b6003546001600160a01b031633146104905760405162461bcd60e51b81526004016101d190610652565b6001600160a01b0381166104e65760405162461bcd60e51b815260206004820181905260248201527f4e6577206f776e65722063616e6e6f74206265207a65726f206164647265737360448201526064016101d1565b6003546040516001600160a01b038084169216907f8be0079c531659141344cd1fd0a4f28419497f9722a3daafe3b4186f6b6457e090600090a3600380546001600160a01b0319166001600160a01b0392909216919091179055565b6003546001600160a01b031633148061056a57503360009081526004602052604090205460ff165b6105865760405162461bcd60e51b81526004016101d190610676565b60005460ff16156105ca5760405162461bcd60e51b815260206004820152600e60248201526d105b1c9958591e481c185d5cd95960921b60448201526064016101d1565b6000805460ff191660011790556040517f0360db892e3dac8f90132b170a358d55724fff3ac936ab6791dccd7572240bf9906102df9042815260200190565b60006020828403121561061b57600080fd5b81356001600160a01b038116811461063257600080fd5b9392505050565b60006020828403121561064b57600080fd5b5035919050565b6020808252600a908201526927b7363c9037bbb732b960b11b604082015260600190565b6020808252600e908201526d139bdd08185d5d1a1bdc9a5e995960921b604082015260600190565b6000826106bb57634e487b7160e01b600052601260045260246000fd5b50069056fea2646970667358221220f4107bce98eca1582636f66a602e80b5ffbca3a58a5cdc151ad1d3a2946ac9af64736f6c634300081e0033",
  "linkReferences": {},
  "deployedLinkReferences": {}
}