{
  "_format": "hh-sol-artifact-1",
  "contractName": "StakingManager",
  "sourceName": "contracts/targets/StakingManager.sol",
  "abi": [
    {
      "inputs": [
        {
          "internalType": "uint256",
          "name": "initialRewardRate",
          "type": "uint256"
        },
        {
          "internalType": "uint256",
          "name": "initialAllocation",
          "type": "uint256"
        }
      ],
      "stateMutability": "nonpayable",
      "type": "constructor"
    },
    {
      "anonymous": false,
      "inputs": [
        {
          "indexed": true,
          "internalType": "address",
          "name": "previousOwner",
          "type": "address"
        },
        {
          "indexed": true,
          "internalType": "address",
          "name": "newOwner",
          "type": "address"
        }
      ],
      "name": "OwnershipTransferred",
      "type": "event"
    },
    {
      "anonymous": false,
      "inputs": [
        {
          "indexed": true,
          "internalType": "uint256",
          "name": "newRate",
          "type": "uint256"
        },
        {
          "indexed": false,
          "internalType": "uint256",
          "name": "timestamp",
          "type": "uint256"
        }
      ],
      "name": "RewardRateUpdated",
      "type": "event"
    },
    {
      "anonymous": false,
      "inputs": [
        {
          "indexed": false,
          "internalType": "uint256",
          "name": "timestamp",
          "type": "uint256"
        }
      ],
      "name": "StakingPaused",
      "type": "event"
    },
    {
      "anonymous": false,
      "inputs": [
        {
          "indexed": false,
          "internalType": "uint256",
          "name": "timestamp",
          "type": "uint256"
        }
      ],
      "name": "StakingResumed",
      "type": "event"
    },
    {
      "anonymous": false,
      "inputs": [
        {
          "indexed": true,
          "internalType": "uint256",
          "name": "newAllocation",
          "type": "uint256"
        },
        {
          "indexed": false,
          "internalType": "uint256",
          "name": "timestamp",
          "type": "uint256"
        }
      ],
      "name": "StrategyRebalanced",
      "type": "event"
    },
    {
      "inputs": [],
      "name": "getRewardRate",
      "outputs": [
        {
          "internalType": "uint256",
          "name": "",
          "type": "uint256"
        }
      ],
      "stateMutability": "view",
      "type": "function"
    },
    {
      "inputs": [],
      "name": "getStakingStatus",
      "outputs": [
        {
          "internalType": "bool",
          "name": "",
          "type": "bool"
        }
      ],
      "stateMutability": "view",
      "type": "function"
    },
    {
      "inputs": [],
      "name": "getStrategyAllocation",
      "outputs": [
        {
          "internalType": "uint256",
          "name": "",
          "type": "uint256"
        }
      ],
      "stateMutability": "view",
      "type": "function"
    },
    {
      "inputs": [],
      "name": "owner",
      "outputs": [
        {
          "internalType": "address",
          "name": "",
          "type": "address"
        }
      ],
      "stateMutability": "view",
      "type": "function"
    },
    {
      "inputs": [],
      "name": "pauseStaking",
      "outputs": [],
      "stateMutability": "nonpayable",
      "type": "function"
    },
    {
      "inputs": [],
      "name": "rebalanceStrategy",
      "outputs": [],
      "stateMutability": "nonpayable",
      "type": "function"
    },
    {
      "inputs": [],
      "name": "resumeStaking",
      "outputs": [],
      "stateMutability": "nonpayable",
      "type": "function"
    },
    {
      "inputs": [
        {
          "internalType": "address",
          "name": "newOwner",
          "type": "address"
        }
      ],
      "name": "transferOwnership",
      "outputs": [],
      "stateMutability": "nonpayable",
      "type": "function"
    },
    {
      "inputs": [
        {
          "internalType": "uint256",
          "name": "newRate",
          "type": "uint256"
        }
      ],
      "name": "updateRewardRate",
      "outputs": [],
      "stateMutability": "nonpayable",
      "type": "function"
    }
  ],
  "bytecode": "0x6080604052348015600f57600080fd5b50604051610595380380610595833981016040819052602c916055565b600380546001600160a01b031916331790556001919091556002556000805460ff191690556078565b60008060408385031215606757600080fd5b505080516020909101519092909150565b61050e806100876000396000f3fe608060405234801561001057600080fd5b50600436106100935760003560e01c80639ef3a261116100665780639ef3a261146100ec578063cab9b8fb146100ff578063db7a3ea314610115578063f2fde38b1461011d578063f999c5061461013057600080fd5b80637475f913146100985780637e1a3786146100a2578063869062fe146100b95780638da5cb5b146100c1575b600080fd5b6100a0610138565b005b6001545b6040519081526020015b60405180910390f35b6002546100a6565b6003546100d4906001600160a01b031681565b6040516001600160a01b0390911681526020016100b0565b6100a06100fa366004610449565b6101ea565b60005460ff1660405190151581526020016100b0565b6100a0610251565b6100a061012b366004610462565b6102c0565b6100a061039c565b6003546001600160a01b0316331461016b5760405162461bcd60e51b815260040161016290610492565b60405180910390fd5b60005460ff166101aa5760405162461bcd60e51b815260206004820152600a602482015269139bdd081c185d5cd95960b21b6044820152606401610162565b6000805460ff191690556040514281527ff79f113488a35b98049c93ea15f720662a733aa737650b3fa6dd7437c575cbe7906020015b60405180910390a1565b6003546001600160a01b031633146102145760405162461bcd60e51b815260040161016290610492565b600181905560405142815281907fc390a98ace15a7bb6bab611eedfdbb2685043b241a869420043cdfb23ccfee509060200160405180910390a250565b6003546001600160a01b0316331461027b5760405162461bcd60e51b815260040161016290610492565b6102866064426104b6565b60028190556040514281527fea234a6aeb16b402d7b401a7a7acf39d7871be5134e4392193eccfda0be6201e9060200160405180910390a2565b6003546001600160a01b031633146102ea5760405162461bcd60e51b815260040161016290610492565b6001600160a01b0381166103405760405162461bcd60e51b815260206004820181905260248201527f4e6577206f776e65722063616e6e6f74206265207a65726f20616464726573736044820152606401610162565b6003546040516001600160a01b038084169216907f8be0079c531659141344cd1fd0a4f28419497f9722a3daafe3b4186f6b6457e090600090a3600380546001600160a01b0319166001600160a01b0392909216919091179055565b6003546001600160a01b031633146103c65760405162461bcd60e51b815260040161016290610492565b60005460ff161561040a5760405162461bcd60e51b815260206004820152600e60248201526d105b1c9958591e481c185d5cd95960921b6044820152606401610162565b6000805460ff191660011790556040517f0360db892e3dac8f90132b170a358d55724fff3ac936ab6791dccd7572240bf9906101e09042815260200190565b60006020828403121561045b57600080fd5b5035919050565b60006020828403121561047457600080fd5b81356001600160a01b038116811461048b57600080fd5b9392505050565b6020808252600a908201526927b7363c9037bbb732b960b11b604082015260600190565b6000826104d357634e487b7160e01b600052601260045260246000fd5b50069056fea2646970667358221220d381e074c366ac32c80a66dc08eaef893b1bccb00e796d7dbe068681f087468064736f6c634300081e0033",
  "linkReferences": {},
  "deployedLinkReferences": {}
}